:1000000039C200000C940E090C94E3080C94B80853
:100010000C948D080C9462080C943708FDC70000FE
:10002000D0C7000058C2000056C2000054C20000F1
:1000300052C2000050C200004EC200004CC200007C
:100040004AC2000048C2000046C2000044C200008C
:1000500042C2000040C200003EC200000C948C0A64
:100060003AC200000C9462090C94390934C20000B1
:1000700032C2000030C200002EC200002CC20000BC
:100080002AC2000028C2000026C2000024C20000CC
:1000900022C2000020C200001EC200001CC20000DC
:1000A0001AC2000018C2000016C2000014C20000EC
:1000B00012C2000010C200000EC200000CC20000FC
:1000C0000AC2000008C2000006C2000004C200000C
:1000D00002C2000000C20000FEC10000FCC100001E
:1000E000FAC1000087028A0279027D028302C102FE
:1000F0008E02920298029C02A002A602AA02AE02FE
:10010000C102B402B802BC0209031103E902F10200
:10011000F9020103190321034E414E494E49545936
:10012000494E46CDCCCC3D0AD7233C17B7D13877C2
:10013000CC2B329595E6241FB14F0A0000204100D8
:1001400000C84200401C4620BCBE4CCA1B0E5AAE22
:10015000C59D742C457869742043616C6962726135
:1001600074696F6E204D6F64653C3C3C003E3E3EC2
:1001700043616C6962726174696F6E204661696C7B
:100180006564003E3E3E43616C6962726174696FF2
:100190006E205375636365737366756C2C4B2056C4
:1001A000616C7565205361766564003E3E3E436F29
:1001B0006E6669726D204661696C65642C54727953
:1001C00020416761696E3C3C3C002C2053656E64A5
:1001D000204558495420746F205361766520616E24
:1001E0006420457869743C3C3C003E3E3E436F6E63
:1001F0006672696D205375636365737366756C2CE5
:100200004B3A003E3E3E506C6561736520707574DC
:10021000207468652070726F626520696E746F204B
:10022000746865207374616E6461726420627566BF
:1002300066657220736F6C7574696F6E3C3C3C0030
:100240003E3E3E456E7465722043616C6962726128
:1002500074696F6E204D6F64653C3C3C00436F6D6C
:100260006D616E64204572726F72006D672F4C0075
:100270002C2020444F2056616C75653A00295C673C
:10028000411F856341B81E5D413D0A5741A470512D
:10029000410AD74B4152B846418FC24141C3F53C58
:1002A00041E17A3841F6283441F6283041EC512CAE
:1002B00041E17A2841CDCC2441AE4721418FC21D76
:1002C000415C8F1A41295C1741EC511441AE471132
:1002D0004166660E4114AE0B41B81E09415C8F06A3
:1002E00041000004418FC2014152B8FE40713DFA05
:1002F000407B14F64085EBF1408FC2ED409A99E9BE
:10030000408FC2E540713DE2406666DE4048E1DA7A
:1003100040295CD740F628D440C3F5D040B81ECD64
:10032000405E430054656D70657261747572653A24
:100330000000002100240027002A002D0030003397
:100340000001010000040107010A0100002200254C
:100350000028002B002E00310034000201000005AF
:100360000108010B0100000A0B02090C0D0E080721
:100370000304010000000000000000000000000075
:10038000000000000000000000000000000000006D
:10039000001211100000000000000000000000002A
:1003A000000000000000000000000000002000230A
:1003B00000260029002C002F00320000010000035D
:1003C00001060109010505050507050808080802D9
:1003D0000202020A0A0808040404040101010101DE
:1003E0000101010303030303030303040707070CCD
:1003F0000C0C0C0C0C0C0C02020202060606060683
:100400000606060B0B0B0B0B0B0B0B01021020202F
:100410000808102040102040800201020108040258
:1004200001010204081020408080402010080402CE
:100430000180040201804020100804020108040227
:10044000010102040810204080010204081020402D
:1004500080005EBCE2613FDD83C29C7E20A3FD1F65
:1004600041009D23BE46DB65F88C11AF32CA57E9C7
:100470007400CB1311241FBECFEFD1E2DEBFCDBF7E
:1004800000E00CBF13E0A0E0B2E0E0E9F1E300E03F
:100490000BBF02C007900D92AA30B107D9F724E034
:1004A000AAE0B3E001C01D92A53FB207E1F712E058
:1004B000CAE3D2E000E006C021970109802FFE01C7
:1004C0000E948C18C933D10780E00807A9F70E9461
:1004D000D60A0C94C61894CD90E0FC013197E23115
:1004E000F10508F04EC08827EE58FF4F8F4F0C944F
:1004F0008C18809180008F7703C0809180008F7D61
:1005000080938000089580918000877FF9CF84B523
:100510008F7702C084B58F7D84BD08958091B0002F
:100520008F7703C08091B0008F7D8093B0000895D5
:10053000809190008F7707C0809190008F7D03C0DD
:1005400080919000877F8093900008958091A00013
:100550008F7707C08091A0008F7D03C08091A0009D
:10056000877F8093A0000895809120018F7707C036
:10057000809120018F7D03C080912001877F80932F
:1005800020010895009761F0FC0101900020E9F737
:100590003197AF01481B590BBC018AEF93E0CEC3E2
:1005A00080E090E00895E82FF0E0EE0FFF1FE050AC
:1005B000FE4F29ED37E03183208390E088309105AC
:1005C00008F046C0FC018827EC57FF4F8F4F0C9472
:1005D0008C18809169008C7F826080936900E89A12
:1005E000089580916900837F886080936900E99A0B
:1005F0000895809169008F7C806280936900EA9AF7
:100600000895809169008F73806880936900EB9AE8
:10061000089580916A008C7F826080936A00EC9AD2
:10062000089580916A00837F886080936A00ED9AC4
:10063000089580916A008F7C806280936A00EE9AB0
:10064000089580916A008F73806880936A00EF9AA2
:10065000089598CF8F929F92AF92BF920F931F935E
:10066000CF93DF93CDB7DEB7A1970FB6F894DEBF77
:100670000FBECDBF19A2423008F44AE08E010F5DD3
:100680001F4F842E912CA12CB12CA50194010E9406
:100690004217E62FB901CA0101501109EA3014F4DA
:1006A000E05D01C0E95CD801EC93232B242B252BC2
:1006B00061F7C80167DFA1960FB6F894DEBF0FBEE1
:1006C000CDBFDF91CF911F910F91BF90AF909F90C1
:1006D0008F9008958AEF92E055CFCF93DF9352DF4A
:1006E000EC01F8DF8C0F9D1FDF91CF9108950F93E0
:1006F0001F93CF93DF938C01C0E0D0E0F801EC0FA3
:10070000FD1F6491662339F08AEF93E0ADD3892B06
:1007100011F02196F3CFCE01DF91CF911F910F9170
:100720000895CF93DF93E3DFEC01D4DF8C0F9D1F9F
:10073000DF91CF9108958F929F92AF92BF92CF9207
:10074000DF92EF92FF920F931F93CF93DF936B0192
:100750007C01142F9B01AC010E947518882319F0AD
:100760008DEF92E027C046015701E894B7F82FEFCC
:100770003FEF4FE75FE7C501B4010E947518811193
:100780000DC02FEF3FEF4FE75FE7C501B4010E94B7
:10079000BA1618161CF481E093E00CC02FEF3FEF5F
:1007A0004FE75FE4C701B6010E94711818167CF488
:1007B00085E093E0DF91CF911F910F91FF90EF9033
:1007C000DF90CF90BF90AF909F908F90DBCE2FEFB8
:1007D0003FEF4FE75FECC701B6010E94BA1687FDF5
:1007E000E7CF20E030E0A901C701B6010E94BA16A8
:1007F00087FF0AC06DE28AEF93E036D3EC01F7FA87
:10080000F094F7F8F09402C0C0E0D0E000E060E0BF
:1008100070E080E09FE3101741F020E030E040E21C
:1008200051E40E94D8170F5FF6CFA70196010E94EE
:1008300074176B017C010E9445184B015C014AE072
:1008400009DFC80FD91F1123A9F1C501B4010E9406
:10085000BE169B01AC01C701B6010E9473176B0164
:100860007C016EE28AEF93E0FFD2C80FD91F20E02F
:1008700030E040E251E4C701B6010E9489144B0107
:100880005C010E9445186B01E12CF12C4AE0C70184
:10089000B601E0DEC80FD91FC701B6010E94BE161F
:1008A0009B01AC01C501B4010E9473176B017C016F
:1008B0001150E9F6CE01DF91CF911F910F91FF907A
:1008C000EF90DF90CF90BF90AF909F908F90089562
:1008D000CF93DF9342E02FDFEC01FCDE8C0F9D1FF6
:1008E000DF91CF9108956F927F928F929F92AF92F6
:1008F000BF92CF92DF92EF92FF920F931F93CF930D
:10090000DF938C01EB0180919D0490919E04CDD5E5
:10091000882309F442C0B80180919D0490919E04FF
:10092000A7D540E06EEB80919D0490919E046DD51B
:100930008E016E0189E0C80ED11C7E01A0909D043D
:10094000B0909E0488E0882E912C712C66246394CC
:10095000C50108D581117628660CE1E08E1A910850
:10096000B9F7F70171927F01CE16DF0639F7809152
:100970009D0490919E0499D5813079F4F80181917C
:100980008F01811104C0EC15FD05C1F706C068E0B8
:10099000CE01D0D491E02885281390E0892FDF91F3
:1009A000CF911F910F91FF90EF90DF90CF90BF906C
:1009B000AF909F908F907F906F900895BF92CF924D
:1009C000DF92EF92FF920F931F93CF93DF93EC018F
:1009D0006B018D85811104C0CE0167D5811105C0E1
:1009E0001B861D861C8680E05CC040E060EFCE0167
:1009F0000CD501E0E12CB12C11E0CE01B3D4F82EDE
:100A0000CE01B0D491E0F91203C08130B1F433C00B
:100A10002E2D30E0F8121BC08B85181738F4FE011C
:100A2000E20FF31F8381802341F402C0811729F074
:100A3000F12C193058F41C8709C0FE01EE0DF11D90
:100A40008381802B8383FF24F39409C0B12EFE01A0
:100A5000E20FF31F9381802F8095892383836F2D6D
:100A6000CE01A4D41F5F000F11F4E39401E087E0EE
:100A70008E1508F0C2CF113408F4B2CFBB86B11086
:100A800002C081E08D878B81882309F4A9CFDE0124
:100A90001396F6012B968D918193CA17DB07D9F730
:100AA00081E0DF91CF911F910F91FF90EF90DF9048
:100AB000CF90BF900895CF93DF93ECE6F3E084915D
:100AC000E2E1F4E0D491ECECF3E0C491CC2389F0C2
:100AD000811102DDEC2FF0E0EE0FFF1FE555FC4F1A
:100AE000A591B491EC91ED2381E090E021F480E0B8
:100AF00002C080E090E0DF91CF910895CF93DF9323
:100B0000CDB7DEB729970FB6F894DEBF0FBECDBFC5
:100B1000BE016F5F7F4FE7DE882389F08D818F33C1
:100B200061F020F48F3159F489E00CC08F3519F051
:100B30008F3739F004C08BE005C08AE003C080E045
:100B400001C08CE029960FB6F894DEBF0FBECDBF72
:100B5000DF91CF9108951F93CF93DF93282F30E03B
:100B6000F901EB59FC4F8491F901E55FFB4FD491FA
:100B7000F901EB53FC4FC491CC23B9F0162F81112E
:100B8000ABDCEC2FF0E0EE0FFF1FE55BFC4FA59117
:100B9000B4919FB7F894111104C08C91D095D823CB
:100BA00002C0EC91DE2BDC939FBFDF91CF911F91B0
:100BB0000895CF93DF9390E0FC01E55FFB4F249114
:100BC000FC01EB53FC4F8491882361F190E0880F86
:100BD000991FFC01EF5CFC4FC591D491FC01E55BD2
:100BE000FC4FA591B491611109C09FB7F894888119
:100BF000209582238883EC912E230BC0623061F410
:100C00009FB7F8948881322F309583238883EC91A5
:100C10002E2B2C939FBF06C08FB7F894E8812E2B04
:100C200028838FBFDF91CF910895863308F08653D4
:100C300090917B00282F2870977F922B90937B00B8
:100C40008770806480937C0080917A0080648093B8
:100C50007A0080917A0086FDFCCF80917800209107
:100C6000790090E0922B08953FB7F8948091F603B5
:100C70009091F703A091F803B091F90326B5A89BD2
:100C800005C02F3F19F00196A11DB11D3FBFBA2F1E
:100C9000A92F982F8827820F911DA11DB11DBC017E
:100CA000CD0142E0660F771F881F991F4A95D1F743
:100CB00008958F929F92AF92BF92CF92DF92EF9260
:100CC000FF926B017C01D0DF4B015C01C114D104A8
:100CD000E104F104E9F0C8DFDC01CB0188199909CE
:100CE000AA09BB09883E9340A105B10578F321E02C
:100CF000C21AD108E108F10888EE880E83E0981E38
:100D0000A11CB11CC114D104E104F10421F7DECF10
:100D1000FF90EF90DF90CF90BF90AF909F908F901B
:100D200008952FB7F8946091F2037091F3038091C6
:100D3000F4039091F5032FBF08950895CF92DF92A9
:100D4000EF92FF920F931F93CF93DF936C017A0181
:100D50008B01C0E0D0E0CE15DF0581F0D8016D91A8
:100D60008D01D601ED91FC910190F081E02DC6013D
:100D70001995892B11F02196EECF7E01C701DF91E5
:100D8000CF911F910F91FF90EF90DF90CF9008953A
:100D9000089580E090E00895FC01538D448D252F47
:100DA00030E0842F90E0821B930B541710F0CF9605
:100DB000089501970895FC01918D828D981761F037
:100DC000828DDF01A80FB11D5D968C91928D9F5F82
:100DD0009F73928F90E008958FEF9FEF0895FC012D
:100DE000918D828D981731F0828DE80FF11D858DE0
:100DF00090E008958FEF9FEF0895FC01918D228D73
:100E0000892F90E0805C9F4F821B91098F739927F7
:100E100008958AEF93E0F1DF21E0892B09F420E0C7
:100E2000822F0895FC01848DDF01A80FB11DA35A04
:100E3000BF4F2C91848D90E001968F739927848FFA
:100E4000A689B7892C93A089B1898C91837080641D
:100E50008C93938D848D981306C00288F389E02DBE
:100E600080818F7D80830895EF92FF920F931F936F
:100E7000CF93DF93EC0181E0888F9B8D8C8D98134D
:100E800005C0E889F989808185FD25C0F62E0B8D86
:100E900010E00F5F1F4F0F731127E02E8C8DE812AB
:100EA0000BC00FB607FCFACFE889F989808185FF6E
:100EB000F5CFCE01B7DFF2CF8B8DFE01E80FF11D2C
:100EC000E35AFF4FF0829FB7F8940B8FEA89FB89B2
:100ED000808180620AC09FB7F894EE89FF896083A1
:100EE000E889F98980818370806480839FBF81E075
:100EF00090E0DF91CF911F910F91FF90EF900895B7
:100F0000CF93DF93EC01888D8823C1F0EA89FB89B8
:100F1000808185FD05C0A889B9898C9186FD0EC0A8
:100F20000FB607FCF5CF808185FFF2CFA889B9897C
:100F30008C9185FFEDCFCE0175DFE8CFDF91CF91AA
:100F4000089580E090E0892B19F063DF811125C0BE
:100F500080E090E0892B41F080E090E0892B21F047
:100F60000E94000081111CC080E090E0892B41F0BC
:100F700080E090E0892B21F00E940000811113C0D5
:100F800080E090E0892BA1F080E090E0892B81F057
:100F90000E94000081110AC008950E940000D8CF6D
:100FA0000E940000E1CF0E940000EACF0C940000F4
:100FB000089580910A038F5F80930A0308950E9429
:100FC000A8181F920F920FB60F9211240BB60F9212
:100FD0002F933F934F935F936F937F938F939F9341
:100FE000AF93BF93EF93FF93E0910E02F0910F0246
:100FF0001995FF91EF91BF91AF919F918F917F9143
:101000006F915F914F913F912F910F900BBE0F9079
:101010000FBE0F901F9018951F920F920FB60F9250
:1010200011240BB60F922F933F934F935F936F93BF
:101030007F938F939F93AF93BF93EF93FF93E09131
:101040000C02F0910D021995FF91EF91BF91AF91B4
:101050009F918F917F916F915F914F913F912F91D0
:101060000F900BBE0F900FBE0F901F9018951F9200
:101070000F920FB60F9211240BB60F922F933F933E
:101080004F935F936F937F938F939F93AF93BF9390
:10109000EF93FF93E0910202F09103021995FF9103
:1010A000EF91BF91AF919F918F917F916F915F91E0
:1010B0004F913F912F910F900BBE0F900FBE0F904D
:1010C0001F9018951F920F920FB60F9211240BB616
:1010D0000F922F933F934F935F936F937F938F93D1
:1010E0009F93AF93BF93EF93FF93E0910002F09132
:1010F00001021995FF91EF91BF91AF919F918F914F
:101100007F916F915F914F913F912F910F900BBE07
:101110000F900FBE0F901F9018951F920F920FB651
:101120000F9211240BB60F922F933F934F935F931F
:101130006F937F938F939F93AF93BF93EF93FF939F
:10114000E0910A02F0910B021995FF91EF91BF9186
:10115000AF919F918F917F916F915F914F913F914F
:101160002F910F900BBE0F900FBE0F901F901895F0
:101170001F920F920FB60F9211240BB60F922F935E
:101180003F934F935F936F937F938F939F93AF930F
:10119000BF93EF93FF93E0910802F0910902199534
:1011A000FF91EF91BF91AF919F918F917F916F913F
:1011B0005F914F913F912F910F900BBE0F900FBEFB
:1011C0000F901F9018951F920F920FB60F92112437
:1011D0000BB60F922F933F934F935F936F937F9331
:1011E0008F939F93AF93BF93EF93FF93E09106028A
:1011F000F09107021995FF91EF91BF91AF919F91E7
:101200008F917F916F915F914F913F912F910F90AF
:101210000BBE0F900FBE0F901F9018951F920F924C
:101220000FB60F9211240BB60F922F933F934F934B
:101230005F936F937F938F939F93AF93BF93EF933E
:10124000FF93E0910402F09105021995FF91EF914F
:10125000BF91AF919F918F917F916F915F914F91CE
:101260003F912F910F900BBE0F900FBE0F901F90CC
:1012700018951F920F920FB60F9211240BB60F9272
:101280002F933F934F935F936F937F938F939F938E
:10129000AF93BF93EF93FF938AEF93E0C3DDFF918A
:1012A000EF91BF91AF919F918F917F916F915F91DE
:1012B0004F913F912F910F900BBE0F900FBE0F904B
:1012C0001F9018951F920F920FB60F9211240BB614
:1012D0000F922F938F939F93EF93FF93E0910A04C4
:1012E000F0910B048081E0911004F091110482FDD3
:1012F00012C09081809113048F5F8F73209114042A
:10130000821751F0E0911304F0E0E650FC4F958F06
:101310008093130401C08081FF91EF919F918F9181
:101320002F910F900BBE0F900FBE0F901F9018952E
:101330000C942217DC0180E0615098F02D91982FD9
:101340009227E92FEF70F0E0EF5AFB4F249192952E
:101350009F70E92FF0E0EF59FB4FE491822F8E2729
:10136000EBCF0895FC0190810180F281E02DF8948B
:101370008181892B81832281892F80952823228353
:10138000A7E0B0E01197F1F7218182238183A3E2E6
:10139000B0E01197F1F780817894EFECF0E03197AD
:1013A000F1F7982381E009F480E00895FC01908131
:1013B0000180F281E02D892F809560FF12C0F894A2
:1013C0002281822382838181892B8183A3E2B0E001
:1013D0001197F1F78281982B9283789487ED90E0B2
:1013E00011C0F8942281822382838181892B818399
:1013F000AFEFB0E01197F1F78281982B9283789448
:101400008FE090E00197F1F70895DF92EF92FF925D
:101410000F931F93CF93DF93EC01D62EE42E08E0B9
:1014200010E0FF24F39461E08D2D8F2109F460E03A
:10143000CE01BCDFFF0C01501109A9F7E11010C06B
:10144000F894E981FA81918188818095892381834B
:10145000E981FA81928188818095892382837894B9
:10146000DF91CF911F910F91FF90EF90DF90089542
:10147000EF92FF920F931F93CF93DF938C017B0129
:1014800040E065E5C2DFE70188E0E80EF11C699104
:1014900040E0C801BADFCE15DF05C9F7DF91CF9173
:1014A0001F910F91FF90EF900895DC012C91119600
:1014B000ED91FC911297F8948181922F9095892358
:1014C000818378948DE743E050E0815021F1DA0187
:1014D0001197F1F730813223C1F3F8948281892387
:1014E00082838181822B81837894ABE7B7E0119767
:1014F000F1F7F89481819823918383E191E001973A
:10150000F1F78081282381E009F080E07894E3E618
:10151000F6E03197F1F708951F920F920FB60F92F0
:1015200011242F933F938F939F93AF93BF938091F9
:10153000F2039091F303A091F403B091F50330917D
:10154000F20423E0230F2D3720F40196A11DB11DD5
:1015500005C026E8230F0296A11DB11D2093F204B9
:101560008093F2039093F303A093F403B093F503F5
:101570008091F6039091F703A091F803B091F903DD
:101580000196A11DB11D8093F6039093F703A093DC
:10159000F803B093F903BF91AF919F918F913F9161
:1015A0002F910F900FBE0F901F901895CF93DF9340
:1015B000CDB7DEB761970FB6F894DEBF0FBECDBFD3
:1015C000789484B5826084BD84B5816084BD85B51E
:1015D000826085BD85B5816085BD80916E0081602A
:1015E00080936E00109281008091810082608093D0
:1015F00081008091810081608093810080918000D2
:101600008160809380008091B10084608093B100FC
:101610008091B00081608093B000809191008260E1
:1016200080939100809191008160809391008091DE
:1016300090008160809390008091A10082608093EF
:10164000A1008091A10081608093A1008091A00001
:1016500081608093A00080912101826080932101AC
:10166000809121018160809321018091200181601E
:101670008093200180917A00846080937A00809129
:101680007A00826080937A0080917A0081608093F2
:101690007A0080917A00806880937A001092C1006D
:1016A000E0910A04F0910B0482E08083E09106044B
:1016B000F09107041082E0910804F09109048FEC86
:1016C000808310921204E0910E04F0910F0486E0E2
:1016D0008083E0910C04F0910D048081806180830F
:1016E000E0910C04F0910D04808188608083E0918A
:1016F0000C04F0910D04808180688083E0910C04DB
:10170000F0910D0480818F7D8083E0919D04F091A4
:101710009E04138615861486DF011B9633961E924F
:10172000AE17BF07E1F710929B0410929C0401E0F2
:10173000BE016F5F7F4F80919D0490919E043ED9C2
:10174000882309F45DC067E0CE010196F3DD98853A
:101750008913EECF80919704811122C080919D045E
:1017600090919E04A2DEBE016F5F7F4F80919D0429
:1017700090919E047DDE40E064EB80919D04909109
:101780009E0443DE80919D0490919E04EBDD182F12
:1017900080919D0490919E0488DE112309F4CCC2AF
:1017A000109198048981803109F4A8C7CE0101966F
:1017B000A5D9811718F48091980408C089818031D7
:1017C00011F48CE003C0CE01019698D9809398045F
:1017D00080919B048F5F80939B048981883209F4F8
:1017E000AEC238F4803109F4AAC2823209F0A0CF27
:1017F000A6C28B3309F4A3C2823409F099CF9FC2E9
:1018000088E390E09093AC048093AB0480E090E098
:10181000A0EAB0E48093AD049093AE04A093AF042B
:10182000B093B00480E090E0A0E8B4E48093B10409
:101830009093B204A093B304B093B40460E088E33F
:10184000B8D93CECE32E34E0F32E00E010E08091B8
:10185000B9049091BA04800F911F6ADDD7018D936E
:101860007D010F5F1F4F0430110589F70091B90406
:101870001091BA04C8015CDD8F3F89F5C80101965B
:1018800057DD8F3F61F5C801029652DD8F3F39F574
:10189000C80103964DDD8F3F11F580E090E0A0E890
:1018A000BFE38093CC049093CD04A093CE04B09377
:1018B000CF048CECE82E84E0F82E00E010E0F70175
:1018C00061917F018091B9049091BA04800F911FBA
:1018D0000E942A170F5F1F4F0430110581F783E321
:1018E00093EFACE8B4E48093290390932A03A09388
:1018F0002B03B0932C0380E090E0A8ECB1E480933C
:101900002D0390932E03A0932F03B093300360E038
:1019100087E34FD960E083E04CD961E083E01BD9D5
:1019200010920A0310921D0310921E0310921F03BF
:10193000109220031092190310921A0310921B03A5
:1019400010921C0310922103109222031092230381
:101950001092240381E00E94D3022DE9222E26E07A
:10196000322E1092ED031092EE031092EF031092BC
:10197000F0031092F10361E087E01BD960E087E09B
:10198000EAD864E170E080E090E093D961E087E01C
:10199000E2D88BE990E00197F1F760E087E009D9A0
:1019A00001E117E288D8892B21F401501109D1F700
:1019B0006BC001E117E27FD8019721F401501109B2
:1019C000D1F762C098E2E92EF12C17E000E081E146
:1019D000C82E87E2D82E6FD8892B29F4F1E0CF1AD0
:1019E000D108C9F751C040D94B015C01B1E1CB2E00
:1019F000B7E2DB2E60D8019729F421E0C21AD108A2
:101A0000C9F742C031D9DC01CB0188199909AA096B
:101A1000BB098997A105B10570F0E02FF0E0EB510B
:101A2000FC4F208581E090E0012E01C0880F0A94D0
:101A3000EAF7822B8087111103C00F5F17E001C006
:101A4000115041E0E41AF10809F0C1CF6091ED03B3
:101A500070E080E090E00E94BE166093E503709312
:101A6000E6038093E7039093E8036091EF0370E04F
:101A700080E090E00E94BE166093E9037093EA0351
:101A80008093EB039093EC0388E292E00E946D0355
:101A900081E392E00E9429036091E9037091EA03D7
:101AA0008091EB039091EC030E94680480E492E043
:101AB0000E9429036091E5037091E6038091E7039A
:101AC0009091E8030E9468048CE492E00E946D0308
:101AD0001092E1031092E2031092E3031092E403E8
:101AE00000E213E08BE3A1D8BC01990F880B990B9E
:101AF0000E94C01620E030EC4FE754E40E94D81753
:101B000020E030E040EA50E404D72091E103309136
:101B1000E2034091E3035091E4030E947417609341
:101B2000E1037093E2038093E3039093E403015095
:101B30001109C1F620E030E048E454E40E94D817CF
:101B400020E030E040E251E4E4D66B017C0120E08B
:101B500030E0A9010E94711820E030E040E05FE32E
:101B600087FD05C0C701B6010E94741704C0C701F4
:101B7000B6010E9473170E9440180E94C01620E010
:101B800030E040E251E40E94D8176B017C01609381
:101B9000E1037093E2038093E3039093E40320E076
:101BA00030E040E250E40E94BA1687FF0DC080E0AA
:101BB00090E8ABE3B5E48093DD039093DE03A0935C
:101BC000DF03B093E00325C0C701B6019FD62DEC1B
:101BD0003CE04CE854EC9DD64B015C0126E632E734
:101BE00043EB55E4C701B60194D69B01AC01C50196
:101BF000B4010E94741726E63EE048E855E40E94CE
:101C000073176093DD037093DE038093DF0390937B
:101C1000E00385E592E00E9429036091E103709161
:101C2000E2038091E3039091E4030E9468048EE54F
:101C300092E00E9429036091DD037091DE038091A0
:101C4000DF039091E0030E94680485E692E00E9421
:101C50006D0380919D0490919E0427DC40E06CEC24
:101C600080919D0490919E04D0DB4091970464E4A0
:101C700080919D0490919E04C8DB809199048823F3
:101C8000C1F1E0919804E950E33040F4F0E0EE0F48
:101C9000FF1FE05FFD4F0081118102C00EEE12E0D8
:101CA00080919A048823F9F08091970481111BC0D8
:101CB00038D86B017C014801110FAA08BB0880913C
:101CC0009D0490919E044EDB813099F02AD8DC016E
:101CD000CB0188199909AA09BB098C159D05AE0588
:101CE000BF0568F306C0B801110F880B990B0E945D
:101CF00059068EE692E00E942903E0919D04F0913E
:101D00009E04138615861486DF011B96CF01039669
:101D10001E92A817B907E1F7BE01665F7F4FCF019A
:101D20000E94DE04882389F067E0CE010A9602DB78
:101D3000998989130AC0E6C40093970431CD809134
:101D40009C048F5F80939C04F3CC60E070E08EEF86
:101D500092EC0E94680486E892E00E946D0380E0A5
:101D600090E0A8ECB1E48093B5049093B604A093FE
:101D7000B704B093B8048091AB040E941506BC016F
:101D8000990F880B990BFCD76093D0047093D10402
:101D90008093D2049093D3042091B1043091B20483
:101DA0004091B3045091B4040E94D8172091AD041F
:101DB0003091AE044091AF045091B004AAD56B01AC
:101DC0007C016093D4047093D5048093D6049093DF
:101DD000D70425E83BE645E053E49BD5A7019601EF
:101DE00098D5A701960195D54B015C0129E23CED00
:101DF0004FE753E4C701B6018CD5A701960189D5F9
:101E00009B01AC01C501B4010E9473174B015C0139
:101E100026EF38E546E554E4C701B6017AD59B01C3
:101E2000AC01C501B4010E9474172091CC0430911B
:101E3000CD044091CE045091CF046BD56B017C0151
:101E40006093D8047093D9048093DA049093DB04F0
:101E500020E030E048EC51E46091B5047091B604A4
:101E60008091B7049091B8040E9473172AE037ED6F
:101E700043EA5CE34ED520E030E040E85FE30E94B7
:101E800074179B01AC01C701B6010E94D81760937B
:101E9000DC047093DD048093DE049093DF0420E083
:101EA00030E040E05FE335D56093E0047093E104F7
:101EB0008093E2049093E3048091110381110DC09B
:101EC0000E94910660930D0370930E0380930F039D
:101ED0009093100381E08093110310E18AEF93E067
:101EE0000E94FD06181619060CF063C00E949106A8
:101EF000C0900D03D0900E03E0900F03F0901003FC
:101F0000DC01CB018C199D09AE09BF09853F9140C9
:101F1000A105B10540F01092CB04ABEBB4E0E12F8A
:101F20001D92EA95E9F70E94910660930D03709364
:101F30000E0380930F03909310038AEF93E00E94A7
:101F4000DB068A3021F09091CB049F3079F4109217
:101F5000CB048BEB94E004D76FE872E08BEB94E05A
:101F60000E94AC18892B09F0B7C309C0E92FF0E033
:101F7000E555FB4F808B9F5F9093CB04AFCF65E916
:101F800072E08BEB94E00E94AC18892B09F0C7C279
:101F90006AE972E08BEB94E00E94AC18009709F0BC
:101FA000F0C280910C03882321F08DE592E00E941D
:101FB00091036091E0047091E1048091E2049091BA
:101FC000E30440E00E949B038FE992E00E946D03CE
:101FD00083EA92E00E946D0389E30E941506BC012A
:101FE000990F880B990BCCD620E030E040E651E405
:101FF00090D420E030E040E85AE38BD46093D903DA
:102000007093DA038093DB039093DC038AE30E94EE
:102010001506BC01990F880B990BB2D620E030E071
:1020200048E455E476D420E030E040E85AE371D447
:102030006093D5037093D6038093D7039093D8030E
:102040008CEA92E00E9429036091D9037091DA032F
:102050008091DB039091DC030E94680482EB92E0A4
:102060000E9429036091D5037091D6038091D70314
:102070009091D8030E94680488EB92E00E946D035F
:102080008091CD0381110DC00E9491066093C90318
:102090007093CA038093CB039093CC0381E0809329
:1020A000CD030E9491060091C9031091CA032091AB
:1020B000CB033091CC03DC01CB01801B910BA20B35
:1020C000B30B4F97A105B10530F10E9491066093C3
:1020D000C9037093CA038093CB039093CC03009100
:1020E000C7031091C80387E30E941506F801EE0F9D
:1020F000FF1FE557FC4F918380830F5F1F4F0E3109
:10210000110529F01093C8030093C70304C010926F
:10211000C8031092C7038091830381110DC00E94F0
:10212000910660937F037093800380938103909363
:10213000820381E0809383030E94910600917F03D4
:10214000109180032091810330918203DC01CB0147
:10215000801B910BA20BB30B853F9140A105B105EC
:1021600050F00E94910660937F03709380038093E8
:102170008103909382038091770381110DC00E94A7
:102180009106609373037093740380937503909327
:10219000760381E0809377030E9491060091730398
:1021A000109174032091750330917603DC01CB010B
:1021B000801B910BA20BB30B893E9340A105B10587
:1021C00008F4D0C00E949106609373037093740367
:1021D0008093750390937603ABE8B3E025E333E097
:1021E000F90180E090E04D915D914193519301960A
:1021F0008E319105C1F79093720380937103EDB610
:10220000FEB64DB75EB74C5351090FB6F8945EBF9A
:102210000FBE4DBF0DB71EB70F5F1F4F435C5F4F23
:10222000F8014E175F0739F0D9018D919D919D01FD
:1022300081939193F6CF8DE190E0F80120E030E0BA
:10224000281739079CF4419151912F5F3F4F6081CE
:10225000718164177507A4F76F01B2E0CB1AD1083A
:10226000D6016D937C9351834083EACF019729F780
:10227000F801668D778D848D958D680F791F77FFB6
:1022800002C06F5F7F4F759567950FB6F894FEBEDD
:102290000FBEEDBE072E000C880B990B71D520E008
:1022A00030E44CE955E435D320E030E040E85AE32F
:1022B00030D3609331037093320380933303909350
:1022C000340384E293E00E94770341E060E070E031
:1022D00088EC91E40E949B0381E293E00E947703E3
:1022E00020E030E040E05FE360912D0370912E0329
:1022F00080912F0390913003F7D5C2D6FB01EE0FEA
:10230000FF1FEE0FFF1FE358FD4F659175918591FB
:1023100094912091310330913203409133035091D5
:102320003403F7D22091290330912A0340912B03E3
:1023300050912C033DD66B017C0160932503709373
:102340002603809327039093280380E792E00E945E
:10235000770342E0C701B6010E949B038BE692E03F
:102360000E9491030E949106009121031091220383
:102370002091230330912403DC01CB01801B910BBE
:10238000A20BB30B883E9340A105B10558F30E9400
:10239000910660932103709322038093230390930B
:1023A000240381EC92E00E946D03ED9830920302C9
:1023B000209202020E94910610910A03C09021030C
:1023C000D0902203E0902303F09024036C197D0940
:1023D0008E099F09D3D49B01AC0160E070E08AE7CD
:1023E00094E4E6D56B017C01612F70E080E090E021
:1023F000C7D49B01AC01C701B6018BD220E030E00D
:1024000040E950E4D5D560931D0370931E0380937B
:102410001F039093200320E030E040E752E4C8D54A
:1024200020E030E04AE754E474D22FD6009119033B
:1024300010911A0320911B0330911C03D901C8018C
:10244000860F971FA11DB11D8093190390931A0346
:10245000A0931B03B0931C038AEC92E00E94290313
:1024600060911D0370911E0380911F0390912003C2
:1024700007D66B01770FEE08FF08F7FE0EC06DE27E
:102480008AEF93E00E94340766277727CB016C1907
:102490007D098E099F094AE003C04AE0C701B601E1
:1024A0000E942A0386ED92E00E9429038CED92E0BF
:1024B0000E9429038EED92E00E9429036091190386
:1024C00070911A0380911B0390911C034AE00E94B3
:1024D0002A0387EF92E00E946D038CED92E00E9448
:1024E00029036091190370911A0380911B03909145
:1024F0001C0328EE33E040E050E0C4D4CA01B90127
:102500004AE00E942A0388EF92E00E942903109279
:102510000A0381E00E94D3020E94A10722CA80918F
:102520000C03882309F445CD0E946A0380910B03B4
:102530008823C1F04CECE42E44E0F42E00E010E0DF
:10254000D7016D917D018091B9049091BA04800FFB
:10255000911F80D40F5F1F4F0430110589F783E866
:1025600091E002C08DE691E00E94770383E591E05F
:102570000E9491030E946A0310920B0310920C03B5
:1025800018CD60E070E0049678D220910C032223ED
:1025900009F40FCD9B01AC01A7D46B017C0120E0B5
:1025A00030E048EC51E46091B5047091B60480913C
:1025B000B7049091B80497D42AE037ED43EA5CE37E
:1025C000A8D120E030E040E85FE38ED4A701960177
:1025D000A0D14B015C0120E030E0A90182D51816A2
:1025E0000CF06FC020E030E04AEF54E4C501B401C4
:1025F000C1D387FF66C0C090D404D090D504E090CA
:10260000D604F090D70425E83BE645E053E4C70143
:10261000B6017FD1A70196017CD1A701960179D19E
:102620002B013C0129E23CED4FE753E4C701B60121
:1026300070D1A70196016DD19B01AC01C301B2011C
:1026400052D42B013C0126EF38E546E554E4C7019E
:10265000B6015FD19B01AC01C301B20145D49B011E
:10266000AC01C501B401A4D46B017C0120E030E0D1
:1026700040E85EE336D5181624F520E030E040E867
:1026800050E4C701B60176D387FF1BC00E946A03DE
:102690008AEE91E00E94770342E0C701B6010E94F2
:1026A0009B038AEC91E00E949103C092CC04D092EB
:1026B000CD04E092CE04F092CF0481E080930B032E
:1026C00078CC0E946A038BEA91E00E9491030E94F9
:1026D0006A0310920B036DCC81E080930C0310927F
:1026E0000B030E946A0380E492E00E94910383E05E
:1026F00092E00E9491030E946A035BCC1D3008F0B7
:102700005AC85FC8BE016F5F7F4FCE010A960E9414
:102710007304882309F43CC02A8130E0C901982F52
:102720008827990F990F990F6981A8E06A9FB001D6
:1027300011249C01262B372B8A858031C1F46885B2
:1027400070E08F81FB01E81BF109CF019695982F6E
:10275000882797958795CDD460517109207FE3E054
:10276000220F331FEA95E1F7620F731F01C0B90111
:102770006138F4EE7F070CF4E8CA072E000C880BD2
:10278000990BFED220E030E040E05CE3C2D0E1CA29
:1027900060E874EEEDCF1092FD031092FC0388EE1A
:1027A00093E0A0E0B0E08093FE039093FF03A0933A
:1027B0000004B09301048AE192E09093FB038093BC
:1027C000FA0385EC90E0909307048093060484EC70
:1027D00090E0909309048093080480EC90E090933B
:1027E0000B0480930A0481EC90E090930D04809395
:1027F0000C0482EC90E090930F0480930E0486EC1E
:1028000090E090931104809310041092130410929E
:102810001404109215041092160487E390E090932C
:10282000AC048093AB0480E090E0A8ECB1E480932A
:10283000B5049093B604A093B704B093B80480E0B5
:1028400090E0A0EAB0E48093AD049093AE04A0932E
:10285000AF04B093B00480E090E0A0E8B4E48093CB
:10286000B1049093B204A093B304B093B40488E08D
:1028700090E09093BA048093B90480E090E0A0E8DF
:10288000BFE38093CC049093CD04A093CE04B09387
:10289000CF0460E082E00E94D905EDE0F4E0E4912D
:1028A000E093E404E7ECF3E0E491F0E0EE0FFF1FC7
:1028B000E555FC4F859194919093E6048093E5044F
:1028C0001092EF041092F1041092F004EFEEF4E095
:1028D000129284E0E73EF807D9F784EE94E09093F3
:1028E0009E0480939D0410929B0410929C0410926D
:1028F000970489E08093980481E080939904809301
:102900009A041092AA041092A90408959B01AC01A4
:1029100000C00BD078C069D028F06ED018F0952395
:1029200009F05AC05FC01124A2C07ED0A0F3959FC9
:10293000D1F3950F50E0551F629FF001729FBB27A6
:10294000F00DB11D639FAA27F00DB11DAA1F649F52
:102950006627B00DA11D661F829F2227B00DA11D05
:10296000621F739FB00DA11D621F839FA00D611D8B
:10297000221F749F3327A00D611D231F849F600DAC
:10298000211D822F762F6A2F11249F5750408AF0E5
:10299000E1F088234AF0EE0FFF1FBB1F661F771F71
:1029A000881F91505040A9F79E3F510570F014C008
:1029B0005EC05F3FECF3983EDCF3869577956795B4
:1029C000B795F795E7959F5FC1F7FE2B880F911D8F
:1029D0009695879597F9089597F99F6780E870E035
:1029E00060E008959FEF80EC089500240A94161685
:1029F000170618060906089500240A9412161306ED
:102A0000140605060895092E0394000C11F488237A
:102A100052F0BB0F40F4BF2B11F460FF04C06F5F96
:102A20007F4F8F4F9F4F089557FD9058440F551F6C
:102A300059F05F3F71F04795880F97FB991F61F040
:102A40009F3F79F087950895121613061406551FB7
:102A5000F2CF4695F1DF08C0161617061806991F23
:102A6000F1CF86957105610508940895E894BB2718
:102A700066277727CB0197F908958F929F92AF929F
:102A8000BF92CF92DF92EF92FF920F931F93CF935B
:102A9000DF93EC016B016115710519F0FB01918366
:102AA00080837E01FFEFEF1AFF0A0881802F90E0FC
:102AB00037D1892B11F0E701F4CF0D3239F47E01C3
:102AC00082E0E80EF11C098111E008C00B3229F404
:102AD0007E0192E0E90EF11C098110E0E7012197E7
:102AE00043E050E060E271E0CE0122D1892BB9F4DD
:102AF000239645E050E06BE171E0CE0119D1892BBE
:102B000009F42596C114D10419F0F601D183C083CC
:102B10001111F0C060E070E080E89FE7F4C043E08E
:102B200050E068E171E0CE0103D1892B59F4C11462
:102B3000D10409F4E4C0F2E0EF0EF11CF601F182D9
:102B4000E082DDC020E030E0A901C0E0D0E0F70184
:102B500060EDA62EA00E89E08A1528F1912F9260D3
:102B6000B92E812F887012FF04C0811123C02196D5
:102B700021C081112197A5E0B0E07AD1DC01CB0121
:102B8000880F991FAA1FBB1F9C01AD012A0D311D83
:102B9000411D511D283989E93807480789E158073F
:102BA00048F0166006C09EEFA9120AC013FD40C08F
:102BB0001860B12E8FEFE81AF80A00811B2DC7CFDD
:102BC000802F8F7D8534A1F580818D3211F41061C5
:102BD00006C08B3221F0319661E070E004C0818143
:102BE000329662E070E080538A3018F0E61BF70BF3
:102BF0001FC060E070E060389CE079075CF4DB01A6
:102C0000AA0FBB1FAA0FBB1F6A0F7B1F660F771F80
:102C1000680F711D3196DF0111978C9180538A30B6
:102C200050F314FF03C0719561957109C60FD71F4A
:102C300011FF08C0C114D10429F0CF010197F6019A
:102C400091838083CA01B90199D0212F2370233049
:102C500019F04B015C0106C04B015C01B7FAB0945E
:102C6000B7F8B09420E030E0A901C501B40182D0EA
:102C7000882309F43CC0D7FF06C0D195C195D1097E
:102C800007E311E002C00FE411E06801F8E1CF1A98
:102C9000D10890E2E92EF12CCE15DF056CF0F80199
:102CA0002591359145915491C501B40132DE4B0116
:102CB0005C01CE19DF09F0CF04501109F594E794B7
:102CC0000C151D0549F78A2D880F8B2D881F8F3F06
:102CD00041F020E030E0A901C501B4014BD08111E1
:102CE00006C082E290E09093F4048093F304C5015F
:102CF000B40109C060E070E080E89FEF04C060E0CC
:102D000070E080EC9FE7DF91CF911F910F91FF90D2
:102D1000EF90DF90CF90BF90AF909F908F900895ED
:102D200091118DC0803219F089508550D0F70895E7
:102D3000FB01DC014150504088F08D9181341CF042
:102D40008B350CF4805E659161341CF06B350CF4AE
:102D5000605E861B611171F3990B0895881BFCCF8F
:102D6000DC016C9161566A3108F0605E6F5B6D93B7
:102D7000C1F7089540D008F481E00895E89409C0AF
:102D800097FB3EF490958095709561957F4F8F4F9E
:102D90009F4F9923A9F0F92F96E9BB279395F695B4
:102DA000879577956795B795F111F8CFFAF4BB0F32
:102DB00011F460FF1BC06F5F7F4F8F4F9F4F16C096
:102DC000882311F096E911C0772321F09EE8872F20
:102DD000762F05C0662371F096E8862F70E060E0DC
:102DE0002AF09A95660F771F881FDAF7880F969555
:102DF000879597F90895990F0008550FAA0BE0E8F9
:102E0000FEEF16161706E807F907C0F012161306AC
:102E1000E407F50798F0621B730B840B950B39F4EC
:102E20000A2661F0232B242B252B21F408950A2652
:102E300009F4A140A6958FEF811D811D0895992762
:102E400088270895F999FECF92BD81BDF89A9927F8
:102E500080B50895262FF999FECF1FBA92BD81BD86
:102E600020BD0FB6F894FA9AF99A0FBE019608950C
:102E70002BD0A59F900DB49F900DA49F800D911D08
:102E800011240895A1E21A2EAA1BBB1BFD010DC03F
:102E9000AA1FBB1FEE1FFF1FA217B307E407F5070A
:102EA00020F0A21BB30BE40BF50B661F771F881FE6
:102EB000991F1A9469F760957095809590959B017C
:102EC000AC01BD01CF010895A29FB001B39FC00125
:102ED000A39F700D811D1124911DB29F700D811D46
:102EE0001124911D08955058BB27AA270ED08BCDD1
:102EF0007CDD30F081DD20F031F49F3F11F41EF4D1
:102F000071CD0EF4E095E7FB67CDE92F8DDD80F301
:102F1000BA17620773078407950718F071F49EF5D6
:102F2000A5CD0EF4E0950B2EBA2FA02D0B01B90103
:102F300090010C01CA01A0011124FF27591B99F02F
:102F4000593F50F4503E68F11A16F040A22F232F3B
:102F5000342F4427585FF3CF469537952795A7958B
:102F6000F0405395C9F77EF41F16BA0B620B730B32
:102F7000840BBAF09150A1F0FF0FBB1F661F771FA3
:102F8000881FC2F70EC0BA0F621F731F841F48F458
:102F9000879577956795B795F7959E3F08F0B3CFDE
:102FA0009395880F08F09927EE0F979587950895C8
:102FB0000CD029CD21DD40F018DD30F021F45F3F49
:102FC00019F00ACD511153CD0DCD2EDD98F3992373
:102FD000C9F35523B1F3951B550BBB27AA276217DD
:102FE0007307840738F09F5F5F4F220F331F441F22
:102FF000AA1FA9F333D00E2E3AF0E0E830D091505A
:103000005040E695001CCAF729D0FE2F27D0660F46
:10301000771F881FBB1F261737074807AB07B0E885
:1030200009F0BB0B802DBF01FF2793585F4F2AF09B
:103030009E3F510568F0D0CC1ACD5F3FECF3983E2F
:10304000DCF3869577956795B795F7959F5FC9F7F8
:10305000880F911D9695879597F90895E1E0660F81
:10306000771F881FBB1F621773078407BA0720F0FA
:10307000621B730B840BBA0BEE1F88F7E095089563
:1030800004D06894B111F3CC0895D6DC88F09F5732
:1030900090F0B92F9927B751A0F0D1F0660F771FA4
:1030A000881F991F1AF0BA95C9F712C0B13081F084
:1030B000DDDCB1E00895DACC672F782F8827B85F80
:1030C00039F0B93FCCF3869577956795B395D9F7E5
:1030D0003EF490958095709561957F4F8F4F9F4FEF
:1030E000089589DE08F48FEF089585DE880B990B2B
:1030F000089597FB072E16F4009406D077FD08D0AC
:1031000013D007FC05D03EF4909581959F4F08950C
:10311000709561957F4F0895EE0FFF1F881F8BBF3D
:103120000790F691E02D1994AA1BBB1B51E107C033
:10313000AA1FBB1FA617B70710F0A61BB70B881F47
:10314000991F5A95A9F780959095BC01CD010895D6
:1031500081E090E0F8941AC0FB0151915523A9F049
:10316000BF01DC014D9145174111E1F759F4CD0143
:103170000190002049F04D9140154111C9F3FB0128
:103180004111EFCF81E090E001970895F894FFCFCF
:103190009D069D069D069D069D069D069D069D0617
:1031A0005E00BC0077010000000034079E06CC06DC
:1031B0008007FD06DB06EF0653656E736F722031E4
:1031C0000054656D7065726174757265203D2000F4
:1031D00048756D6964697479203D200053656E738C
:1031E0006F72203200566F6C7473203D20004E5475
:1031F00055203D200053656E736F72203300546577
:103200006D706572617475726520666F72204453CB
:103210002069733A200053656E736F722034004545
:103220004E54455200455849540043414C3A0070B1
:10323000706D0053656E736F722035007068203DAD
:1032400020006563203D200053656E736F72203649
:103250000053656E736F72203700466C6F77207273
:103260006174653A20004C2F6D696E0009004F753E
:1032700074707574204C6971756964205175616E44
:10328000746974793A20006D4C000D0A006E616E0D
:0A32900000696E66006F76660000AC
:020000023000CC
:10E000000D9489F10D94B2F10D94B2F10D94B2F129
:10E010000D94B2F10D94B2F10D94B2F10D94B2F1F0
:10E020000D94B2F10D94B2F10D94B2F10D94B2F1E0
:10E030000D94B2F10D94B2F10D94B2F10D94B2F1D0
:10E040000D94B2F10D94B2F10D94B2F10D94B2F1C0
:10E050000D94B2F10D94B2F10D94B2F10D94B2F1B0
:10E060000D94B2F10D94B2F10D94B2F10D94B2F1A0
:10E070000D94B2F10D94B2F10D94B2F10D94B2F190
:10E080000D94B2F10D94B2F10D94B2F10D94B2F180
:10E090000D94B2F10D94B2F10D94B2F10D94B2F170
:10E0A0000D94B2F10D94B2F10D94B2F10D94B2F160
:10E0B0000D94B2F10D94B2F10D94B2F10D94B2F150
:10E0C0000D94B2F10D94B2F10D94B2F10D94B2F140
:10E0D0000D94B2F10D94B2F10D94B2F10D94B2F130
:10E0E0000D94B2F141546D656761323536300041AF
:10E0F000726475696E6F206578706C6F72657220DE
:10E1000073746B3530305632206279204D4C530099
:10E11000426F6F746C6F616465723E004875683F52
:10E1200000436F6D70696C6564206F6E203D200048
:10E130004350552054797065202020203D20005FF9
:10E140005F4156525F415243485F5F3D2000415658
:10E1500052204C696243205665723D20004743437C
:10E160002056657273696F6E203D20004350552024
:10E1700049442020202020203D20004C6F7720663D
:10E18000757365202020203D20004869676820665F
:10E190007573652020203D200045787420667573D6
:10E1A00065202020203D20004C6F636B2066757336
:10E1B000652020203D20004D617220203720323024
:10E1C000313300312E362E3800342E332E350056A2
:10E1D00023202020414444522020206F7020636F70
:10E1E00064652020202020696E73747275637469E1
:10E1F0006F6E2061646472202020496E74657272B3
:10E20000757074006E6F20766563746F7200726A49
:10E210006D702020006A6D70200057686174207056
:10E220006F72743A00506F7274206E6F7420737541
:10E2300070706F72746564004D7573742062652030
:10E2400061206C6574746572002000577269747483
:10E25000696E672045450052656164696E672045B7
:10E26000450045452065727220636E743D00504F35
:10E27000525400303D5A65726F2061646472003FF1
:10E280003D43505520737461747300403D454550C3
:10E29000524F4D207465737400423D426C696E6B41
:10E2A000204C454400453D44756D70204545505215
:10E2B0004F4D00463D44756D7020464C415348001B
:10E2C000483D48656C70004C3D4C69737420492F83
:10E2D0004F20506F72747300513D51756974005234
:10E2E0003D44756D702052414D00563D73686F7707
:10E2F00020696E7465727275707420566563746FF0
:10E30000727300593D506F727420626C696E6B00BD
:10E310002A0011241FBECFEFD1E2DEBFCDBF01E046
:10E320000CBF12E0A0E0B2E0EEE1FDEF03E00BBFB6
:10E3300002C007900D92A030B107D9F712E0A0E01B
:10E34000B2E001C01D92AE30B107E1F70F9460F367
:10E350000D948DFE01E20EBF0FEF0DBF11241FBE05
:10E360000D9460F30D9400F020E030E040ED57E0B4
:10E3700005C0FA013197F1F72F5F3F4F2817390792
:10E38000C0F308959C01260F311DC901A0E0B0E043
:10E390002F5F3F4FABBFFC018791882361F08093D3
:10E3A000C6008091C00086FFFCCF8091C0008064D1
:10E3B0008093C000EACF08958DE08093C6008091DD
:10E3C000C00086FFFCCF8091C00080648093C000B5
:10E3D0008AE08093C6008091C00086FFFCCF8091C8
:10E3E000C00080648093C00008950F94C2F10F9420
:10E3F000DCF10895FC019081992359F09093C600B7
:10E400008091C00086FFFCCF8091C0008064809323
:10E41000C0003196992379F70895282F982F929567
:10E420009F70892F805D8A3308F0895F8093C600D2
:10E430008091C00086FFFCCF8091C00080648093F3
:10E44000C000822F8F70982F905D9A3308F0995FEB
:10E450009093C6008091C00086FFFCCF8091C000E1
:10E4600080648093C00008959C01FB01853691056E
:10E470001CF46330710594F0C90164E670E00F94F8
:10E480002EFE605D7F4F6093C6008091C00086FFC6
:10E49000FCCF8091C00080648093C0002B30310598
:10E4A00014F43297B4F0C90164E670E00F942EFEC4
:10E4B0006AE070E00F942EFE605D7F4F6093C600AF
:10E4C0008091C00086FFFCCF8091C0008064809363
:10E4D000C000C9016AE070E00F942EFEC0968093E0
:10E4E000C6008091C00086FFFCCF8091C000806490
:10E4F0008093C00008951F93182F8EE692EE60E07F
:10E500000F94C2F11093C6008091C00086FFFCCF2B
:10E510008091C00080648093C0000F94DCF11F9153
:10E5200008952F923F924F925F926F927F928F92B7
:10E530009F92AF92BF92CF92DF92EF92FF920F9392
:10E540001F93DF93CF93CDB7DEB762970FB6F894E2
:10E55000DEBF0FBECDBF382E622ECA01DB015C01CB
:10E560006D01772420E2222E2E010894411C511CBB
:10E570008BC081E0A81680E0B80681E0C80680E084
:10E58000D80628F0C601AA27BB270F940DF2BB2797
:10E59000AD2D9C2D8B2D0F940DF28A2D0F940DF225
:10E5A0002092C6008091C00086FFFCCF8091C00001
:10E5B00080648093C0009DE29093C6008091C0006B
:10E5C00086FFFCCF8091C00080648093C0002092C1
:10E5D000C6008091C00086FFFCCF8091C00080649F
:10E5E0008093C00019828601750188249924A1E0D6
:10E5F0003A1651F03A1620F0B2E03B1661F409C029
:10E600000BBFF701779007C0C7010F9477FE782EF4
:10E6100002C0F7017080872D0F940DF22092C60082
:10E620008091C00086FFFCCF8091C0008064809301
:10E63000C000872D8052F401EF70F0708F3520F408
:10E64000E40DF51D708204C0E40DF51D8EE280839B
:10E650000894E11CF11C011D111D0894811C911CE2
:10E6600090E18916910409F0C2CF80E190E0A0E02A
:10E67000B0E0A80EB91ECA1EDB1E198AC2010F9493
:10E68000FAF10F94DCF16A94662009F072CF629679
:10E690000FB6F894DEBF0FBECDBFCF91DF911F91B3
:10E6A0000F91FF90EF90DF90CF90BF90AF909F9031
:10E6B0008F907F906F905F904F903F902F90089534
:10E6C0002F923F924F925F926F927F928F929F9282
:10E6D000AF92BF92CF92DF92EF92FF920F931F9370
:10E6E000DF93CF93CDB7DEB7CD53D1400FB6F894BB
:10E6F000DEBF0FBECDBF01E20EBF0FEF0DBF94B75F
:10E70000F894A89514BE80916000886180936000A1
:10E7100010926000789493FF05C0E0910002F091A0
:10E7200001021995279A2F9A8091C00082608093E8
:10E73000C00080E18093C40088E18093C1000000A4
:10E74000EE24FF24870144E0A42EB12CCC24DD2448
:10E7500024C0C5010197F1F70894E11CF11C011DCB
:10E76000111D21E2E2162EE4F20620E0020720E06D
:10E77000120718F031E0C32ED12CC801B70127ECE5
:10E780003BE140E050E00F9441FE611571058105C9
:10E79000910519F485B1805885B98091C00087FD35
:10E7A00003C0C114D104A9F2A6014F5F5F4FC25E3E
:10E7B000DE4F59834883CE51D140C25EDE4F8881FF
:10E7C0009981CE51D140019711F00D9410FEC05D9A
:10E7D000DE4F19821882C053D14060E0C15DDE4F28
:10E7E0001882CF52D14088249924C35DDE4F19820C
:10E7F0001882CD52D140C05EDE4F188219821A8233
:10E800001B82C052D140CE5CDE4F188219821A8220
:10E810001B82C253D140EE24FF2487010BBFF701B6
:10E8200007911691C45CDE4F19830883CC53D14005
:10E830000D940BFEC25EDE4F28813981CE51D1404E
:10E840002130310509F52091C600C25EDE4F1982E4
:10E850001882CE51D14022C02F5F3F4F4F4F5F4FA4
:10E86000213082E138078AE7480780E0580780F0C6
:10E87000C45CDE4FE881F981CC53D140EF5FFF4F9C
:10E8800019F0EE27FF27099420E030E040E050E047
:10E890008091C00087FFE0CF2091C600C35DDE4FAE
:10E8A00048815981CD52D1404F5F5F4FC35DDE4FEC
:10E8B00059834883CD52D140213209F063C64A3092
:10E8C000510508F05FC60894811C911C53E0851621
:10E8D000910409F059C600E010E018C081E280936D
:10E8E000C6008091C00086FFFCCF8091C00080648C
:10E8F0008093C0002F5F3F4F2931310579F70F9486
:10E90000DCF10F5F1F4F0530110519F020E030E0FA
:10E91000E5CF10920A0210920B0210920C02109294
:10E920000D02109206021092070210920802109235
:10E930000902109202021092030210920402109235
:10E9400005028FEE90EE60E00F94F5F180E191EE1C
:10E9500060E00F94C2F18091C00087FFFCCF9091DE
:10E96000C600903608F09F759032B8F09093C600BC
:10E970008091C00086FFFCCF8091C00080648093AE
:10E98000C000A0E2A093C6008091C00086FFFCCF2B
:10E990008091C00080648093C000983409F4D7C18E
:10E9A0009934B8F4923409F459C1933458F490333B
:10E9B00019F1903308F4E3C59F33A1F1903409F0C5
:10E9C000DEC5BDC0953409F470C1963409F0D7C5D1
:10E9D00098C1923509F42BC2933538F49C3409F46C
:10E9E000F5C1913509F0CBC518C2963509F445C279
:10E9F000993509F0C4C567C483E792EE62E00F94CD
:10EA0000F5F110920602109207021092080210927D
:10EA1000090210920A0210920B0210920C0210923C
:10EA20000D0213C18FE792EE62E00F94F5F18FEEC5
:10EA300090EE60E00F94F5F181E291EE60E00F94CA
:10EA4000C2F187EB91EE60E00F94F5F180E391EE77
:10EA500060E00F94C2F184EE90EE60E00F94F5F167
:10EA60008FE391EE60E00F94C2F186E090E061E008
:10EA700070E00F9434F20F94DCF18DE591EE60E0DC
:10EA80000F94C2F189EC91EE60E00F94F5F18EE401
:10EA900091EE60E00F94C2F183EC91EE60E00F9490
:10EAA000F5F18CE691EE60E00F94C2F18EE10F94E7
:10EAB0000DF288E90F940DF281E00F940DF20F949E
:10EAC000DCF18BE791EE60E00F94C2F119E0E0E039
:10EAD000F0E010935700E4918E2F0F940DF20F94F5
:10EAE000DCF18AE891EE60E00F94C2F1E3E0F0E03F
:10EAF00010935700E4918E2F0F940DF20F94DCF1D8
:10EB000089E991EE60E00F94C2F1E2E0F0E0109349
:10EB10005700E4918E2F0F940DF20F94DCF188EAE8
:10EB200091EE60E00F94C2F1E1E0F0E01093570045
:10EB30001491812F0F940DF20F94DCF107CF8BE825
:10EB400092EE62E00F94F5F18BE492EE60E00F94A8
:10EB5000F5F10F94DCF100E010E019C0C8016F2D51
:10EB60000F947FFEFF2031F489E492EE60E00F9471
:10EB7000C2F10BC0F092C6008091C00086FFFCCFAE
:10EB80008091C00080648093C0000F5F1F4FC80158
:10EB900081519F41A0E0B0E0ABBFFC01F790BAE229
:10EBA000FB1621F0E2E000301E07C1F60F94DCF105
:10EBB0000F94DCF187E592EE60E00F94F5F10F948D
:10EBC000DCF1CC24DD2400E010E01EC0C8010F946D
:10EBD00077FEF82E882331F489E492EE60E00F94FA
:10EBE000C2F10BC08093C6008091C00086FFFCCFAD
:10EBF0008091C00080648093C000FE1419F00894D6
:10EC0000C11CD11C0F5F1F4FC80181519F41A0E063
:10EC1000B0E0ABBFFC01E790FAE2EF1621F022E092
:10EC20000030120799F60F94DCF10F94DCF182E6C4
:10EC300092EE60E00F94C2F1C60161E070E00F94C3
:10EC400034F20F94DCF10F94DCF110920202109276
:10EC50000302109204021092050278CE89E992EE26
:10EC600062E00F94F5F1279A2F9A16C02F9880E052
:10EC700090E0E0EDF7E03197F1F7019684369105E9
:10EC8000C1F72F9A80E090E0E0EDF7E03197F1F7DF
:10EC9000019684369105C1F78091C00087FFE6CFC9
:10ECA0008091C00087FFFCCF64C485EA92EE62E0E9
:10ECB0000F94F5F140910202509103026091040219
:10ECC0007091050281E020E10F9491F2809102029F
:10ECD00090910302A0910402B091050280509F4FD1
:10ECE000AF4FBF4F8093020290930302A0930402A0
:10ECF000B093050280509041A040B04008F426CE69
:10ED0000A4CF83EB92EE62E00F94F5F140910602FE
:10ED100050910702609108027091090280E020E1A1
:10ED20000F9491F28091060290910702A09108023F
:10ED3000B091090280509F4FAF4FBF4F80930602A2
:10ED400090930702A0930802B0930902FFCD80ECD4
:10ED500092EE62E00F94F5F183E792EE60E00F949B
:10ED6000F5F18FE792EE60E00F94F5F18BE892EE0B
:10ED700060E00F94F5F189E992EE60E00F94F5F10F
:10ED800085EA92EE60E00F94F5F183EB92EE60E09D
:10ED90000F94F5F180EC92EE60E00F94F5F187ECC2
:10EDA00092EE60E00F94F5F188ED92EE60E00F9442
:10EDB000F5F18FED92EE60E00F94F5F18AEE92EEB0
:10EDC00060E00F94F5F183E093EEBDCD87EC92EE19
:10EDD00062E00F94F5F181E40F947BF282E40F94EA
:10EDE0007BF283E40F947BF284E40F947BF285E45E
:10EDF0000F947BF286E40F947BF287E40F947BF20E
:10EE000088E40F947BF28AE40F947BF28BE40F94F6
:10EE10007BF28CE40F947BF299CD88ED92EE62E068
:10EE20000F94F5F1772473948824992409C48FED05
:10EE300092EE62E00F94F5F140910A0250910B02BC
:10EE400060910C0270910D0282E020E10F9491F22A
:10EE500080910A0290910B02A0910C02B0910D02D8
:10EE600080509F4FAF4FBF4F80930A0290930B0289
:10EE7000A0930C02B0930D0269CD8AEE92EE62E08F
:10EE80000F94F5F184EE90EE60E00F94F5F18FECC5
:10EE900091EE60E00F94F5F1662477244301CC5D98
:10EEA000DE4F19821882C452D140D401C301B695F5
:10EEB000A79597958795CA5DDE4F88839983AA8326
:10EEC000BB83C652D140CC5DDE4FA881B981C4520C
:10EED000D1401196CC5DDE4FB983A883C452D14096
:10EEE000CD0162E070E00F9434F2B0E2B093C6005E
:10EEF0008091C00086FFFCCF8091C0008064809329
:10EF0000C000EDE2E093C6008091C00086FFFCCF18
:10EF10008091C00080648093C000F0E2F093C6004E
:10EF20008091C00086FFFCCF8091C00080648093F8
:10EF3000C000CA5DDE4FE880F9800A811B81C6529D
:10EF4000D140BB27A12F902F8F2D0F940DF2CA5DBA
:10EF5000DE4F8881C652D1400F940DF2B0E2FB2EF5
:10EF6000F092C6008091C00086FFFCCF8091C00067
:10EF700080648093C0000DE30093C6008091C000C0
:10EF800086FFFCCF8091C00080648093C00010E2B7
:10EF90001093C6008091C00086FFFCCF8091C00016
:10EFA00080648093C0008BBEF3012791C65DDE4F65
:10EFB0002883CA52D140A22EBB24CC24DD2408943D
:10EFC000611C711C811C911C8BBEF3018791282E42
:10EFD0003324442455240894611C711C811C911C09
:10EFE0008BBEF3013791C55DDE4F3883CB52D140E4
:10EFF0000894611C711C811C911C8BBEF30147910C
:10F00000C45DDE4F4883CC52D140ADEFEA2EAFEF66
:10F01000FA2EAFEF0A2FAFEF1A2F6E0C7F1C801E57
:10F02000911E142D032DF22CEE24EA0CFB1C0C1D5A
:10F030001D1D0F940DF220E22093C6008091C000A8
:10F0400086FFFCCF8091C00080648093C000C65DC5
:10F05000DE4F8881CA52D1400F940DF230E23093D6
:10F06000C6008091C00086FFFCCF8091C000806404
:10F070008093C000C45DDE4F8881CC52D1400F9494
:10F080000DF240E24093C6008091C00086FFFCCFA5
:10F090008091C00080648093C000C55DDE4F888190
:10F0A000CB52D1400F940DF250E25093C6008091A4
:10F0B000C00086FFFCCF8091C00080648093C000B8
:10F0C0008FEFE8168FEFF80680E0080780E018075A
:10F0D00031F484E092EE60E00F94C2F1DFC0D80119
:10F0E000C7018070907CA070B0708050904CA040A0
:10F0F000B040D1F52FEF3FE340E050E0E222F322B1
:10F1000004231523CA5DDE4FA880B980CA80DB8046
:10F11000C652D140AE0CBF1CC01ED11EAA0CBB1CD7
:10F12000CC1CDD1C8EE092EE60E00F94C2F1BB2798
:10F13000A12F902F8F2D0F940DF28E2D0F940DF285
:10F1400030E23093C6008091C00086FFFCCF8091F2
:10F15000C00080648093C0004EE34093C60080915D
:10F16000C00086FFFCCF87C08EE09EEFA0E0B0E03D
:10F17000E822F9220A231B239CE0E91694E9F90608
:10F1800090E0090790E0190709F088C0C45DDE4FE0
:10F19000A881CC52D140EA2EFF2400E010E0102FCD
:10F1A0000F2DFE2CEE24C55DDE4FB881CB52D14031
:10F1B000EB0EF11C011D111DD601C501817090706F
:10F1C000A070B070DC0199278827E80EF91E0A1F8D
:10F1D0001B1F20EF30E040E050E0A222B322C42207
:10F1E000D52241E1AA0CBB1CCC1CDD1C4A95D1F7F1
:10F1F000EA0CFB1C0C1D1D1D81E090E0A0E0B0E0BE
:10F20000282239224A225B2235E1220C331C441C7D
:10F21000551C3A95D1F7E20CF31C041D151D57013E
:10F220006801AA0CBB1CCC1CDD1C85E192EE60E0E1
:10F230000F94C2F1C801AA27BB270F940DF2BB2778
:10F24000A12F902F8F2D0F940DF28E2D0F940DF274
:10F2500090E29093C6008091C00086FFFCCF809121
:10F26000C00080648093C000AEE3A093C60080918C
:10F27000C00086FFFCCF8091C00080648093C000F6
:10F28000C601AA27BB270F940DF2BB27AD2D9C2DDD
:10F290008B2D0F940DF28A2D0F940DF20F94DCF14B
:10F2A000CC5DDE4FE881F981C452D140F99709F471
:10F2B0004DCBF4E0EF2EF12C012D112D6E0C7F1CA7
:10F2C000801E911EF2CD83E093EE62E00F94F5F183
:10F2D0008AE192EE60E00F94C2F18091C00087FF56
:10F2E000FCCF1091C6001F751093C6008091C0001E
:10F2F00086FFFCCF8091C00080648093C0000F9493
:10F30000DCF1812F81548A3108F036C1163409F4BA
:10F3100095C0173490F4133409F44EC0143430F40B
:10F320001134F1F0123409F01DC130C0143409F465
:10F3300059C0153409F016C16BC01A3409F4C4C0A1
:10F340001B3438F4173409F48FC0183409F00AC19B
:10F35000A1C01B3409F4D2C01C3409F003C1E8C0B9
:10F360008FEF81B90DC082B1809582B980E090E0C5
:10F37000E0EDF7E03197F1F70196883C9105C1F790
:10F380008091C00087FFEFCF12B8EFC08FEF84B934
:10F390000DC085B1809585B980E090E0E0EDF7E0A3
:10F3A0003197F1F70196883C9105C1F78091C00033
:10F3B00087FFEFCF15B8D9C08FEF87B90DC088B1DF
:10F3C000809588B980E090E0E0EDF7E03197F1F7C3
:10F3D0000196883C9105C1F78091C00087FFEFCF6F
:10F3E00018B8C3C08FEF8AB90DC08BB180958BB9A7
:10F3F00080E090E0E0EDF7E03197F1F70196883C8E
:10F400009105C1F78091C00087FFEFCF1BB8ADC059
:10F410008FEF8DB90DC08EB180958EB980E090E0F0
:10F42000E0EDF7E03197F1F70196883C9105C1F7DF
:10F430008091C00087FFEFCF1EB897C08FEF80BBD1
:10F440000DC081B3809581BB80E090E0E0EDF7E0F6
:10F450003197F1F70196883C9105C1F78091C00082
:10F4600087FFEFCF11BA81C08FEF83BB0DC084B38C
:10F47000809584BB80E090E0E0EDF7E03197F1F714
:10F480000196883C9105C1F78091C00087FFEFCFBE
:10F4900014BA6BC08FEF809301010FC080910201FD
:10F4A00080958093020180E090E0E0EDF7E03197F5
:10F4B000F1F70196883C9105C1F78091C00087FF64
:10F4C000EDCF1092020151C08FEF809304010FC065
:10F4D0008091050180958093050180E090E0E0ED4A
:10F4E000F7E03197F1F70196883C9105C1F78091DB
:10F4F000C00087FFEDCF1092050137C08FEF8093DA
:10F5000007010FC08091080180958093080180E079
:10F5100090E0E0EDF7E03197F1F70196883C910536
:10F52000C1F78091C00087FFEDCF109208011DC088
:10F530008FEF80930A010FC080910B01809580931B
:10F540000B0180E090E0E0EDF7E03197F1F70196F4
:10F55000883C9105C1F78091C00087FFEDCF1092E4
:10F560000B0103C085E292EEEEC98091C00087FFD7
:10F57000FCCF8091C600EAC988E392EEE4C98CE131
:10F5800091EEE1C988249924933011F1943028F444
:10F59000913089F09230B8F408C0953061F195301F
:10F5A000F0F0963009F048C043C02B3109F042C951
:10F5B00091E06BE13FC96227C15DDE4F2883CF52E6
:10F5C000D14092E037C9B22FA0E0622793E032C960
:10F5D000822F90E0A82BB92B622794E02BC92E3004
:10F5E00009F039C3622795E0C05DDE4F19821882A9
:10F5F000C053D1401FC9E1E0F0E0EC0FFD1FC05D3A
:10F60000DE4F08811981C053D140E00FF11F2083E4
:10F610000F5F1F4FC05DDE4F19830883C053D14079
:10F6200062270A171B0709F005C9D80196E002C92D
:10F63000261709F010C303C0973009F0FBC87724E0
:10F640009981933109F412C19431C8F4963009F4C8
:10F65000D8C0973050F4923009F406C1933009F4C1
:10F660006DC0913009F059C253C0913109F477C08F
:10F67000923108F0BBC0903109F04FC2F5C098310B
:10F6800009F487C0993150F4953109F4EFC09531F0
:10F6900008F4C6C1963109F040C2C2C19A3109F4DA
:10F6A0006CC09A3108F491C09B3109F45BC09D3164
:10F6B00009F033C29D81903359F48F81882311F46E
:10F6C0009EE11CC0813011F091E018C098E916C08D
:10F6D000892F807591F0903539F4E0E0F0E089E011
:10F6E0008093570094910AC0983539F4E3E0F0E034
:10F6F00089E080935700949101C090E01A821B82A8
:10F700008D818C831D829E831F8227E030E009C299
:10F710001A8288E08B8381E48C8386E58D8382E581
:10F720008E8389E48F8383E5888780E589878FE5E9
:10F730008A8782E38B872BE030E0F3C18A818139AD
:10F7400041F0823941F0803911F48FE005C080E04A
:10F7500003C082E001C08AE01A828B8344C0772410
:10F76000739482C08D81882311F48EE12CC0813086
:10F7700011F081E028C088E926C01A82E1E0F0E0BB
:10F7800089E08093570084918B831C8224E030E0D1
:10F79000C8C18B81803589F48C81883039F4E2E0EE
:10F7A000F0E089E08093570084910DC0E0E0F0E044
:10F7B00089E080935700849106C0E3E0F0E089E09F
:10F7C0008093570084911A82DFCF8D81836C99E0FA
:10F7D000E1E0F0E0082E90935700E89507B600FCB2
:10F7E000FDCF1A821B8223E030E09BC180EC8A832C
:10F7F000CE5CDE4F188219821A821B82C253D1401E
:10F800008EC18A8190E0A0E0B0E0582F44273327D2
:10F8100022278B8190E0A0E0B0E0DC0199278827C7
:10F82000282B392B4A2B5B2B8D8190E0A0E0B0E098
:10F83000282B392B4A2B5B2B8C8190E0A0E0B0E089
:10F84000BA2FA92F982F8827282B392B4A2B5B2BCF
:10F85000220F331F441F551FC05EDE4F288339839C
:10F860004A835B83C052D1401A8259C13A81C95C34
:10F87000DE4F3883C753D140CA5CDE4F1882C6536F
:10F88000D1408B81C82EDD24CA5CDE4F488159816E
:10F89000C653D140C42AD52A933109F082C0CE5C28
:10F8A000DE4F88819981AA81BB81C253D1408050AB
:10F8B000904CA340B04030F583E0CE5CDE4FE88052
:10F8C000F9800A811B81C253D140F70100935B008C
:10F8D00080935700E89507B600FCFDCFCE5CDE4F65
:10F8E000088119812A813B81C253D14000501F4FAA
:10F8F0002F4F3F4FCE5CDE4F088319832A833B8313
:10F90000C253D140C05EDE4F488159816A817B81FC
:10F91000C052D140DE011B9631E08C9111962C91A2
:10F9200011971296C75CDE4F2883C953D140C85C3B
:10F93000DE4F1882C853D14090E0C85CDE4FE881AA
:10F94000F981C853D1408E2B9F2B0C01FA01609393
:10F950005B0030935700E89511244E5F5F4F6F4F67
:10F960007F4F0EEFE02E0FEFF02ECE0CDF1CC114F8
:10F97000D10499F685E0C05EDE4F088119812A81A5
:10F980003B81C052D140F80120935B008093570027
:10F99000E89507B600FCFDCF81E180935700E8951C
:10F9A00035C0C05EDE4F88819981AA81BB81C0527B
:10F9B000D140B695A795979587957C018601ABE0D8
:10F9C000AA2EB12CAC0EBD1E0BC0D5016D915D01F0
:10F9D000C7010F947FFE0894E11CF11C01501040F8
:10F9E0000115110591F7A60160E070E0440F551F65
:10F9F000661F771FC05EDE4FE880F9800A811B8199
:10FA0000C052D1404E0D5F1D601F711F1A82C05E33
:10FA1000DE4F488359836A837B83C052D1407FC0C5
:10FA2000FA80C55CDE4FF882CB53D140C65CDE4F16
:10FA30001882CA53D1408B81C82EDD24C65CDE4FAC
:10FA400008811981CA53D140C02AD12A1A828981DA
:10FA5000BE016D5F7F4F843121F59601C05EDE4FA0
:10FA6000E880F9800A811B81C052D1400BBFF701A9
:10FA700087919691DB018C9311969C936E5F7F4FDB
:10FA8000D801C7010296A11DB11DC05EDE4F88835B
:10FA90009983AA83BB83C052D14022503040F1F6F3
:10FAA00036C0C05EDE4F288139814A815B81C052F9
:10FAB000D1400894C108D108760100E010E0089414
:10FAC000C11CD11C0894E11CF11C011D111DE20E8A
:10FAD000F31E041F151F21BDBB27A52F942F832FB5
:10FAE00082BD2F5F3F4F4F4F5F4FF89A80B5DB01CC
:10FAF0008D93BD012E153F054007510761F7C05E8C
:10FB0000DE4F288339834A835B83C052D1409601FC
:10FB10002D5F3F4FFB01108204C080EC8A8322E0FE
:10FB200030E08BE18093C6008091C00086FFFCCF5F
:10FB30008091C00080648093C000C15DDE4FF88179
:10FB4000CF52D140F093C6008091C00086FFFCCF19
:10FB50008091C00080648093C000432F3093C60022
:10FB60008091C00086FFFCCF8091C00080648093AC
:10FB7000C000922F2093C6008091C00086FFFCCF6A
:10FB80008091C00080648093C0008EE08093C600A6
:10FB90008091C00086FFFCCF8091C000806480937C
:10FBA000C00065E1C15DDE4FE880CF52D1406E25D7
:10FBB00069276427FE01319610C090819093C6009A
:10FBC0008091C00086FFFCCF31968091C000806498
:10FBD0008093C0006927215030402115310569F715
:10FBE0006093C6008091C00086FFFCCF8091C0006A
:10FBF00080648093C00085B1805885B9772081F4F6
:10FC0000C15DDE4F0881CF52D1400F5FC15DDE4F35
:10FC10000883CF52D14090E0A0E0B0E00D941AF4F8
:10FC200027982F9880E090E020ED37E0F901319798
:10FC3000F1F7019684369105C9F700008091C00064
:10FC40008D7F8093C00081E180935700E895EE2777
:10FC5000FF270994FFCF90E00D941AF497FB092E2B
:10FC600007260AD077FD04D02ED006D000201AF443
:10FC7000709561957F4F0895F6F7909581959F4F08
:10FC80000895A1E21A2EAA1BBB1BFD010DC0AA1FDD
:10FC9000BB1FEE1FFF1FA217B307E407F50720F0F5
:10FCA000A21BB30BE40BF50B661F771F881F991F70
:10FCB0001A9469F760957095809590959B01AC01B9
:10FCC000BD01CF010895AA1BBB1B51E107C0AA1FAC
:10FCD000BB1FA617B70710F0A61BB70B881F991FED
:10FCE0005A95A9F780959095BC01CD010895F99991
:10FCF000FECF92BD81BDF89A992780B50895262F31
:10FD0000F999FECF1FBA92BD81BD20BD0FB6F89400
:0EFD1000FA9AF99A0FBE01960895F894FFCF63
:040000033000E000E9
:00000001FF
